:020000001628C0
:0E0006008312031323088A00220882000800D8
:1000140003208A110A128000840AA20A0319A30A7F
:08002400F003031D0A28080087
:10002C0083120313A001A101831603178801890110
:10003C00831203138601831686018312A00A031907
:10004C00A10A86090230FB000430FC00BA30FD0026
:10005C00FD0B2E28FC0B2E28FB0B2E2800008030CD
:10006C002106F00080307002031D3E28143020025F
:10007C00031C2328A001A10160300305A4008316F2
:10008C0003130F138F120F120F149F3083052408C4
:10009C00830486091A30FC00F830FD00FD0B54284F
:1000AC00FC0B54280000A00A0319A10A8030210679
:1000BC00F00080307002031D652814302002031CF0
:0400CC004F2867282A
:04400E00F22F000786
:00000001FF
