:020000001628C0
:0E0006008312031323088A00220882000800D8
:1000140003208A110A128000840AA20A0319A30A7F
:08002400F003031D0A28080087
:10002C008316031788018901FF308312031386009E
:10003C00831686010B30FB002630FC005D30FD0082
:10004C00FD0B2628FC0B2628FB0B262800000000A5
:10005C0083128601A001A10180302106F0008030BE
:10006C007002031D3B281430200203186A285E28F6
:10007C00FF3086000230FB000430FC00BA30FD007B
:10008C00FD0B4628FC0B4628FB0B46280000662877
:10009C0086010630FB001330FC00AD30FD00FD0B7B
:1000AC005528FC0B5528FB0B552800000000662832
:1000BC000608003A03193E280608FF3A03194E2891
:1000CC00A00A0319A10A322855308600860903308C
:1000DC00FB000830FC007730FD00FD0B7328FC0B97
:0A00EC007328FB0B73286C287A2898
:04400E00F22F000786
:00000001FF
