:020000009B283B
:10000800FF00030E8301A8000A08A9008A017008EE
:10001800A0002508003A031D192885012608880034
:10002800013085000130A5001F28850127088800B8
:1000380002308500A501810120308B002008F000E6
:0E00480029088A00280E8300FF0E7F0E090093
:0E0056008312031322088A002108820008008A
:1000640083120313F8010830FC00700DF80D7408B6
:10007400F80203183F28F8070310F00DFC0B37288B
:02008400080072
:1000860064283F3083120313F0008E280630F000F8
:100096008E285B30F0008E284F30F0008E286630B8
:1000A600F0008E286D30F0008E287D30F0008E280E
:1000B6000730F0008E287F30F0008E286F30F00079
:1000C6008E28831203132A08003A031944282A08A3
:1000D600013A031949282A08023A03194C282A0822
:1000E600033A03194F282A08043A031952282A0802
:1000F600053A031955282A08063A031958282A08E2
:10010600073A03195B282A08083A03195E282A08C1
:08011600093A031961280800F1
:10011E002B208A110A128000840AA10A0319A20A4E
:08012E00F003031D8F280800F7
:10013600803083160313810083128101A0308B0067
:10014600850183168501831288018316880183122F
:10015600A3012308633C031CE3280A30F4002308A8
:10016600F00032207808F0007008A4007008AA0099
:100176004320831203137008A6000A30F4002308F4
:10018600F00032200A30F40032207808F0007008BF
:10019600A4007008AA004320831203137008A70066
:1001A6000B30FB002630FC005D30FD00FD0BD9282E
:1001B600FC0BD928FB0BD92800000000A30AAC28A9
:0401C600AA28E42857
:04400E00F22F000786
:00000001FF
