:02000000EA28EC
:10000600023083120313FC004930FD00FD0B092862
:0A001600FC0B0928000000000800A0
:0E0020008312031321088A00200882000800C2
:10002E0083120313FB01FA01F9018030F800F10C81
:10003E00F00C031C2B287408F90775080318750FAC
:10004E00FA070318FB0A0310F01F33287408FA0787
:10005E0075080318750FFB07FB0CFA0CF90CF80C5E
:10006E00031C1E287B08F3007A08F2007908F100C1
:06007E007808F000080004
:0C00840083120313950117129712080055
:1000900010208A110A128000840AA00A0319A10AFA
:0800A000F003031D48280800CD
:1000A80083120313A9012508F1000130F00071083B
:1000B80003196228F00D7010FF3E5C287008A80034
:1000C8002408840070080005F10071080130031D40
:1000D8000030F0002708F00603198A282608003C9B
:1000E80003187A2803200320A60372282408840012
:1000F80028080005F10071080130031D0030F000E8
:100108002708F00603198A28FF30A9002908F000FB
:020118000800DD
:10011A008316031788018901FF30831203138500B0
:10012A00FF308316850083128601831686018312A7
:10013A008701831687018312121492106330831683
:06014A00920042200800B3
:10015000831603130711831212150C30970408003D
:10016000831603131208013EF000F1010318F10A8F
:1001700083122408F400F50117200630F2007008FD
:10018000F4007108F50072080319CB28F50CF40C83
:10019000F513FF3EC4280430F1007408F000710824
:1001A0000319D628F00D7010FF3ED02830307005AE
:1001B000F3007408F0007508F100F10CF00CF11375
:1001C000F10CF00CF113700895000F3097057308CF
:0401D0009704080088
:1001D4008D201030A2001030A400B020A301A8206C
:1001E4000530A400A5010130A6000130A700542069
:1001F40070080319FE28A20A0530A4000130A500E6
:100204000130A6000130A7005420700803190B29FF
:10021400A20323082206031916292208A400B020E9
:100224002208A300220886000330FB000830FC00EB
:100234007730FD00FD0B1C29FC0B1C29FB0B1C2932
:04024400F228232950
:04400E00F22F000786
:00000001FF
