:020000002E28A8
:10000800FF00030E8301A3000A08A4008A018C1CC8
:100018001028A20A8C10910124088A00230E83005C
:06002800FF0E7F0E09002F
:0E002E008312031321088A00200882000800B4
:08003C0083120313860908007A
:1000440017208A110A128000840AA00A0319A10A3F
:08005400F003031D222808003F
:10005C0083120313A2018316031788018901AA30A6
:10006C0083120313860083168601FF3083129200DD
:10007C0083168C14C0308B00831222081E3A031D89
:0A008C004928A2011E2042284A283C
:04400E00F22F000786
:00000001FF
