:020000008A2B49
:06000600000000000800EC
:10000C000F3083120313FC004730FD00FD0B0C284E
:0A001C00FC0B0C2800000000080097
:0E002600213083120313FD00FD0B1728080084
:1000340083120313D81B2028861121288615581BE8
:100044002528061126280615D81A2A2886102B28B2
:100054008614581A2F2806103028061452183428EB
:10006400061635280612861603208612D8193C284F
:1000740086113D288615581941280611422806156F
:10008400D818462886104728861458184B28061076
:100094004C280614521850280616512806128616A3
:1000A40003208612521C58280620592813200800C1
:0E00B4008312031349088A00480882000800DE
:1000C200FB09FA09F909F809F80A0319F90A0319E7
:0800D200FA0A0319FB0A0800F9
:1000DA000E3083120313FD00FD0B71280000080087
:1000EA008312031352105708D8001A20521408001A
:1000FA007408F8027508031C750FF9027608031CC8
:10010A00760FFA027708031C770FFB02F30D07300C
:10011A00FC00730DF80DF90DFA0DFB0D7408731C34
:10012A00A428F8027508031C750FF9027608031C47
:10013A00760FFA027708031C770FFB02B128F8073B
:10014A0075080318750FF90776080318760FFA076A
:10015A0077080318770FFB07F30DFC0B8E28720D37
:10016A00F80DF90DFA0DFB0D7408731CCA28F80274
:10017A007508031C750FF9027608031C760FFA023C
:10018A007708031C770FFB02D728F80775080318AE
:10019A00750FF90776080318760FFA077708031818
:1001AA00770FFB07F20D0730FC00720DF80DF90D01
:1001BA00FA0DFB0D7408721CF028F8027508031C6E
:1001CA00750FF9027608031C760FFA027708031CEA
:1001DA00770FFB02FD28F80775080318750FF90752
:1001EA0076080318760FFA0777080318770FFB07C4
:1001FA00F20DFC0BDA28710DF80DF90DFA0DFB0D55
:10020A007408721C1629F8027508031C750FF90286
:10021A007608031C760FFA027708031C770FFB0295
:10022A002329F80775080318750FF90776080318C4
:10023A00760FFA0777080318770FFB07F10D0730D7
:10024A00FC00710DF80DF90DFA0DFB0D7408711C07
:10025A003C29F8027508031C750FF9027608031C7D
:10026A00760FFA027708031C770FFB024929F80771
:10027A0075080318750FF90776080318760FFA0739
:10028A0077080318770FFB07F10DFC0B2629700D71
:10029A00F80DF90DFA0DFB0D7408711C6229F802AC
:1002AA007508031C750FF9027608031C760FFA020B
:1002BA007708031C770FFB026F29F80775080318E4
:1002CA00750FF90776080318760FFA0777080318E7
:1002DA00770FFB07F00D0730FC00700DF80DF90DD4
:1002EA00FA0DFB0D7408701C8829F8027508031CA6
:1002FA00750FF9027608031C760FFA027708031CB9
:10030A00770FFB029529F80775080318750FF90787
:10031A0076080318760FFA0777080318770FFB0792
:10032A00F00DFC0B72297018A8297408F8077508D3
:10033A000318750FF90776080318760FFA07770876
:08034A000318770FFB07080000
:10035200831203132230FC00F801F901FA01FB01B8
:10036200FC030319DF290310FB0CFA0CF90CF80C3F
:10037200F30CF20CF10CF00C031CB129FC03031971
:10038200D1297408F80775080318750FF90776085C
:100392000318760FFA0777080318770FFB07B529BA
:1003A2007408F80775080318750FF907760803181B
:0E03B200760FFA0777080318770FFB0708008D
:1003C000831203137408003A031DFB297508003AD1
:1003D000031DFB297608003A031DFB297708003A24
:1003E000031DFB29FF30F000FF30F100FF30F20069
:1003F0007F30F300942A83120313FC01F71BFC0ADD
:10040000FD01FB01FA01F901F8017308720471049E
:10041000700403198F2A73087706A000A01BFD093A
:10042000F71F1D2AF409F509F609F709F40A03195B
:10043000F50A0319F60A0319F70AF31F2A2AF00925
:10044000F109F209F309F00A0319F10A0319F20A92
:100450000319F30A73087704A000A01B4B2A7D2020
:10046000FC1B682AFD1F8F2AF009F109F209F30924
:10047000F00A0319F10A0319F20A0319F30AF80939
:10048000F909FA09FB09F80A0319F90A0319FA0A22
:100490000319FB0A8F2AF71F622AF31B5C2A7308D1
:1004A000FB007208FA007108F9007008F800F30107
:1004B000F201F101F001322AF301F201F101F00140
:1004C000F00A0034F309F209F109F009FC172F2AA8
:1004D000F80A0319F90A0319FA0A0319FB0A74083E
:1004E0007802031D322A75087902031D322A760824
:1004F0007A02031D322A77087B02031D322AFB0190
:10050000FA01F901F801F00A0319F10A0319F20AD4
:100510000319F30AF31F322AA0012016FF34A001A9
:0A0520007C1C932A6120003E0800B5
:10052A00A72A803083120313D300BA2AC030D3001B
:10053A00BA2A9430D300BA2AD430D300BA2A8030E7
:10054A00D300BA2A831203135308013A0319962ACD
:10055A005308023A03199B2A5308033A03199E2A9D
:10056A005308043A0319A12AA42A5403F000530891
:10057A00F0077008D30052147008D8001A205210DD
:0A058A005508D8001A20521408008A
:10059400C330831203139F05C0309F005308F0003B
:1005A400F00D7010F00D701070089F042109F00018
:1005B400700883169F059F1783121F146D209F14C4
:1005C4009F1CE62A0000E22A1F101E08F100F00119
:0C05D40083161E08F0040030F10408003B
:1005E0005A208A110A128000840AC80A0319C90A0B
:0805F000F003031DF02A0800CE
:1005F8000E2B803083120313D300212BC030D3007D
:10060800212B9430D300212BD430D300212B8030E0
:10061800D300212B831203135308013A0319FD2A2F
:100628005308023A0319022B5308033A0319052BFE
:100638005308043A0319082B0B2B5403F0005308F2
:10064800F0077008D3007008D8001A205210D6019D
:10065800560855078400000803193A2B5608550711
:1006680084000008D7007520D60A2C2B52140800E5
:1006780083160313861206120610861006118611B9
:10068800831286120612861106118610061006209D
:1006980006200620861406148616032086120620D5
:1006A8008616032086120620861603208612062048
:1006B8000610861603208612062086160320861248
:1006C80086108615861603208612062086110614C3
:1006D8008616032086120610861603208612062028
:1006E8008616032086120614861603208612062014
:1006F800061086160320861286150615861406141B
:0C070800861603208612062052140800FA
:10071400A6248B01043083160317880004300313C6
:100724008500031789013C230C30D8001A200130BE
:10073400D8001A202B30D0000130D3000130D4006F
:100744005008D500FC223C30D0000230D3000130E8
:10075400D4005008D500FC221530FB004B30FC00BF
:10076400BE30FD00FD0BB42BFC0BB42BFB0BB42BE8
:1007740000002230D0000230D300CA227008831255
:10078400CE007108CF000230D3000130D4005008ED
:10079400D500FC224E08F0004F08F100F201F301ED
:1007A4000530F400F501F601F701A921E830F40061
:1007B4000330F500F601F701A9217008CA00710899
:1007C400CB007208CC007308CD00FF30F400033076
:1007D400F500F601F701E0217008CA007108CB00AA
:1007E4007208CC007308CD00E830F4000330F50043
:1007F400F601F701E0217008D1000230D30009307E
:10080400D4007008303ED50095222E30D7007520D4
:100814006430F400F501F601F7014A08F0004B08D2
:10082400F1004C08F2004D08F300E0210A30F40016
:10083400F501F601F701E0217808F0007908F100EC
:100844007A08F2007B08F3007008D1007008303E8B
:10085400D70075200A30F400F501F601F7014A08C3
:10086400F0004B08F1004C08F2004D08F300E021C1
:100874000A30F400F501F601F701E0217808F000F0
:100884007908F1007A08F2007B08F3007008D100BF
:100894007008303ED70075200A30F400F501F601E7
:1008A400F7014A08F0004B08F1004C08F2004D082B
:1008B400F300E0217808F0007908F1007A08F200EA
:1008C4007B08F3007008D1007008303ED700752013
:1008D4005630D70075200330FC009730FD00FD0B27
:0E08E400712CFC0B712C00000000BD2B782C39
:10094C0021308400273083120313F0007E30C8005E
:08095C000430C900F02208007C
:0208FC00303496
:1008FE0076346F346C3474346134673465343A341E
:02090E000034B3
:100910006D3469346B3472346F3445346C346534FF
:100920006B34743472346F346E3469346B346134C4
:02093000003491
:100932004C344334443420346534783461346D3477
:0809420070346C34653400349C
:04400E00F22F000786
:00000001FF
