:020000009D2B36
:10000600403083120313F0001F30F100F201F301B8
:020016000800E0
:10001800831203132230FC00F801F901FA01FB01F5
:10002800FC03031942280310FB0CFA0CF90CF80C1A
:10003800F30CF20CF10CF00C031C1428FC0303194C
:1000480034287408F80775080318750FF907760837
:100058000318760FFA0777080318770FFB07182895
:100068007408F80775080318750FF9077608031858
:0E007800760FFA0777080318770FFB070800CA
:1000860083120313FB01FA01F901F801A001730DB4
:10009600F80D7408F8027508031C750FF902760846
:1000A600031C760FFA027708031C770FFB02000188
:1000B600031C0130A002F30D0730FC00730DF80D90
:1000C600F90DFA0DFB0DA00D7408731C7C28F802BF
:1000D6007508031C750FF9027608031C760FFA02E1
:1000E6007708031C770FFB020001031C0130A002F6
:1000F6008D28F80775080318750FF9077608031891
:10010600760FFA0777080318770FFB070001031825
:100116000130A007F30DFC0B6128720DF80DF90DE7
:10012600FA0DFB0DA00D7408731CAB28F8027508B8
:10013600031C750FF9027608031C760FFA0277087E
:10014600031C770FFB020001031C0130A002BC2830
:10015600F80775080318750FF90776080318760F60
:10016600FA0777080318770FFB0700010318013019
:10017600A007F20D0730FC00720DF80DF90DFA0D0F
:10018600FB0DA00D7408721CDA28F8027508031C12
:10019600750FF9027608031C760FFA027708031C1E
:1001A600770FFB020001031C0130A002EB28F807C1
:1001B60075080318750FF90776080318760FFA07FE
:1001C60077080318770FFB07000103180130A00713
:1001D600F20DFC0BBF28710DF80DF90DFA0DFB0D94
:1001E600A00D7408721C0929F8027508031C750F06
:1001F600F9027608031C760FFA027708031C770FBC
:10020600FB020001031C0130A0021A29F807750839
:100216000318750FF90776080318760FFA0777089B
:100226000318770FFB07000103180130A007F10D33
:100236000730FC00710DF80DF90DFA0DFB0DA00D40
:100246007408711C3829F8027508031C750FF90229
:100256007608031C760FFA027708031C770FFB0259
:100266000001031C0130A0024929F807750803188C
:10027600750FF90776080318760FFA07770803183B
:10028600770FFB07000103180130A007F10DFC0BE7
:100296001D29700DF80DF90DFA0DFB0DA00D740852
:1002A600711C6729F8027508031C750FF902760898
:1002B600031C760FFA027708031C770FFB02000176
:1002C600031C0130A0027829F80775080318750F7A
:1002D600F90776080318760FFA0777080318770FD9
:1002E600FB07000103180130A007F00D0730FC00E2
:1002F600700DF80DF90DFA0DFB0DA00D7408701CAC
:100306009629F8027508031C750FF9027608031C76
:10031600760FFA027708031C770FFB020001031C15
:100326000130A002A729F80775080318750FF90709
:1003360076080318760FFA0777080318770FFB0776
:10034600000103180130A007F00DFC0B7B29701883
:10035600BA297408F80775080318750FF90776089F
:100366000318760FFA0777080318770FFB070800BC
:1003760083120313F801F9011030FC00710DF80D1A
:10038600F90D7408F8027508031C750FF9020318B5
:10039600D3297408F80775080318750FF9070310B1
:0A03A600F00DF10DFC0BC129080059
:1003B00083120313B803B8033808003C0318E52977
:1003C000B803000000000000DC290000000000006D
:0603D0000000000008001F
:1003D6000320E830F4000330F500F601F7010C20A5
:1003E6007008B4007108B5007208B6007308B7004B
:1003F6002C08F4002D08F500F601F70143207008DB
:10040600B4007108B5007208B6007308B70070082A
:10041600F5007108F6007208F7007308F800F80C8A
:10042600F70CF60CF50CF813F80CF70CF60CF50CAB
:10043600F8137508F0007608F1007708F2007808DE
:10044600F300F30CF20CF10CF00CF3137008B0008F
:100456007108B10003202E08F4002F08F500F601FC
:10046600F7010C203008F9003108FA00FB01FC0105
:100476000330F8007908F4007A08F5007B08F600E6
:100486007C08F700780803194F2AF40DF50DF60DD0
:10049600F70D7410FF3E462A43207008B400710819
:1004A600B5007208B6007308B7000A30F4000030D1
:1004B600F5003008F0003108F100BB217008B000EB
:1004C6007108B10000307102031D6B2A03307002FF
:1004D60003186E2ABB2A230884003708003C031D34
:1004E6007E2A3608003C031D7E2A3508003C031D83
:1004F6007E2A3408003C0318B92A210880043108F2
:100506000319952AB201B30100303302031D8D2A67
:10051600310832020318952AB801D821B20A031904
:10052600B30A872A3008B800D82122088005310886
:100536000319AD2AB201B30100303302031DA52A07
:10054600310832020318AD2AB801D821B20A0319BC
:10055600B30A9F2A3008B800D8210130B402031C20
:10056600B502031CB602031CB702702A22088005D6
:0205760008007B
:10057800703083120313AC000330AD003230AE008C
:080588000030AF00EB21080078
:10059000023083120313FC004930FD00FD0BCE2A0C
:0A05A000FC0BCE2A0000000008004A
:0E05AA008312031325088A002408820008002B
:1005B800103083120313AC000330AD00FA30AE00E4
:0605C800AF01EB21080069
:1005CE00933083120313AC000230AD00FA30AE004C
:0605DE00AF01EB21080053
:1005E400BA3083120313AC000230AD00FA30AE000F
:0605F400AF01EB2108003D
:1005FA00163083120313AC000430AD003230AE0063
:08060A000030AF00EB210800F5
:10061200263083120313AC000530AD003230AE0039
:080622000030AF00EB210800DD
:10062A00D5228A110A128000840AA40A0319A50A8B
:08063A00F003031D152B08005D
:10064200093083120313A6002608003C03182E2B40
:0C065200BC22FD220923A603252B080072
:10065E00E722F222DC22DC22E722F222DC22DC225A
:10066E00E722F222DC22E722F222DC22DC22E7223F
:10067E00F222DC22DC22DC22F222F222E722080025
:10068E0083120313AB012708F1000130F00071084B
:10069E000319552BF00D7010FF3E4F2B7008AA005A
:1006AE002608840070080005F10071080130031D52
:1006BE000030F0002908F00603197D2B2808003CB5
:1006CE0003186D2BC822C822A803652B26088400A8
:1006DE002A080005F10071080130031D0030F000FA
:1006EE002908F00603197D2BFF30AB002B08F00014
:0206FE000800F2
:10070000831203132608A3002708F1000130F0002C
:10071000710803198F2BF00D7010FF3E892B7008A4
:10072000A100F0097008A20080302607840070083C
:0A073000800584137008800508009E
:10073A008316031788018901F03086000630831278
:10074A000313A6000330A7008023E830AC0003306F
:10075A00AD00F430AE000130AF00EB210630A60048
:10076A000730A7000130A8000130A900472370080C
:10077A000319C02BE722861FC32BC02B0630A60005
:10078A000630A7000130A8000130A90047237008ED
:10079A000319D02BF222061FD32BD02B0630A6002A
:1007AA000530A7000130A8000130A90047237008CE
:1007BA000319E02B2123861EE32BE02B0630A6002B
:1007CA000430A7000130A8000130A90047237008AF
:1007DA000319F02B2F23061EF32BF02BB32BF42B2C
:04400E00F22F000786
:00000001FF
