:02000000132BC0
:0E000600213083120313FD00FD0B07280800B4
:100014000F3083120313FC004730FD00FD0B102842
:0A002400FC0B10280000000008008B
:06002E00000000000800C4
:1000340083120313C81B2028861121288615481B08
:100044002528061126280615C81A2A2886102B28C2
:100054008614481A2F280610302806143818342815
:10006400061635280612861617208612C8193C284B
:1000740086113D288615481941280611422806157F
:10008400C818462886104728861448184B28061096
:100094004C280614381850280616512806128616BD
:1000A40017208612381C58280A20592803200800D3
:1000B4008312031338104708C8001A2038140800A4
:1000C4007428803083120313C3008728C030C30010
:1000D40087289430C3008728D430C3008728803011
:1000E400C3008728831203134308013A03196328C2
:1000F4004308023A031968284308033A03196B2892
:100104004308043A03196E2871284403F000430895
:10011400F0077008C3007008C8001A203810C60120
:1001240046084507840000080319A0284608450727
:1001340084000008C7005A20C60A92283814080010
:10014400023083120313FC004930FD00FD0BA82884
:0A015400FC0BA828000000000800C2
:10015E00333083120313FD00FD0BB32800000000A3
:02016E00080087
:1001700083120313F801F9011030FC00710DF80D22
:10018000F90D7408F8027508031C750FF9020318BD
:10019000D0287408F80775080318750FF9070310BD
:0A01A000F00DF10DFC0BBE28080065
:1001AA0083120313F8010830FC00700DF80D74086F
:1001BA00F8020318E228F8070310F00DFC0BDA28FE
:0201CA0008002B
:0E01CC00831203133C088A003B0882000800DF
:1001DA0083120313FB01FA01F9018030F800F10CD4
:1001EA00F00C031C01297408F90775080318750F28
:1001FA00FA070318FB0A0310F01F09297408FA0703
:10020A0075080318750FFB07FB0CFA0CF90CF80CB0
:10021A00031CF4287B08F3007A08F2007908F1003D
:06022A007808F000080056
:1002300083120313BE1F25292E0884002D30800051
:10024000BD09BE09BD0A0319BE0A3D08F0003E08FB
:10025000F100F10CF00CF113F10CF00CF113F10CB6
:10026000F00CF113F10CF00CF1137008BF006430C6
:10027000F400D5207008031949296430F4003F08C0
:10028000F000D5203030F0072E0884007008800080
:100290004D292E088400303080002E0AC2000A301A
:1002A000F4003F08F000D5200A30F400D52078088B
:1002B000F0003030F00742088400700880000230FF
:1002C0002E07C2000A30F4003F08F000D52078085D
:1002D000F0003030F00742088400700880003D08CC
:1002E000C0003E08C1000F303D05F0003E08F1009F
:1002F0000030F1057008C0007108C1007130F400D1
:100300000230F500ED207008C0007108C100043013
:100310002E07C200E830F4000330F500B82030307A
:10032000F007420884007008800005302E07C200E4
:100330006430F4000030F5004008F0004108F1009E
:10034000B8200A30F4000030F500B8207808F0003A
:100350007908F1003030F00742088400700880000E
:1003600006302E07C2000A30F4000030F5004008C5
:10037000F0004108F100B8200A30F4000030F50028
:10038000B8207808F0007908F1003030F007420812
:1003900084007008800007302E07C2000A30F40085
:1003A0000030F5004008F0004108F100B82078085E
:1003B000F0007908F1003030F0074208840070083E
:1003C00080000230C3000530C4002E08C500622042
:0203D000080023
:1003D200831203133E08F1000130F0007108031983
:1003E200F629F00D7010FF3EF0297008C000F009E8
:1003F2003D08840070088005841770088005A220DB
:10040200400880048413AF2040080005BF003F0865
:10041200003A013003190030BF00A2203F08F0006B
:020422000800D0
:10042400831203133E08F1000130F0007108031930
:100434001F2AF00D7010FF3E192A7008C200F0093F
:100444007008C1003D088400700880058417C0014D
:100454004008073C031C442A4008F0003F08F10010
:1004640070080319392AF10CF113FF3E332A4108AD
:100474008005711C3F2A42088004AF204208800492
:0C048400C00A2A2A841303200320080069
:10049000831203133E08F1000130F00071080319C4
:1004A000552AF00D7010FF3E4F2A7008C2007009E7
:1004B000C1003D088400C001BF013F08073C031C88
:1004C000812A4108800584174108800517204208C9
:1004D00080041720841342080005F00003197D2AC8
:1004E0003F08F1000130F000710803197B2AF00D7C
:1004F0007010FF3E752A7008C00403200320BF0A55
:080500005D2A4008F00008002C
:10050800962A803083120313BD00A92AC030BD008B
:10051800A92A9430BD00A92AD430BD00A92A803068
:10052800BD00A92A831203133D08013A0319852A3D
:100538003D08023A03198A2A3D08033A03198D2A0D
:100548003D08043A0319902A932A3E03F0003D0817
:10055800F0077008BD0038147008C8001A20381059
:0A0568003F08C8001A2038140800EC
:10057200E6208A110A128000840ABB0A0319BC0A07
:08058200F003031DB92A080073
:10058A0083160313861206120610861006118611A8
:10059A0083128612061286110611861006100A2088
:1005AA000A200A20861406148616172086120A20A4
:1005BA008616172086120A208616172086120A2007
:1005CA0006108616172086120A208616172086120B
:1005DA00861086158616172086120A20861106149A
:1005EA0086161720861206108616172086120A20EB
:1005FA0086161720861206148616172086120A20D7
:10060A0006108616172086128615061586140614F5
:0C061A008616172086120A2038140800EB
:10062600543083120313A0006530A1006D30A20080
:100636007030A3006530A4007230A5006130A600BA
:100646007430A7007530A8007230A9006530AA0082
:100656003A30AB002030AC00AD012F30AE00303068
:10066600AF003030B0003030B1002E30B200303044
:10067600B3003030B4003030B5003030B600B701CA
:100686008316031788018901831287138813C522ED
:100696000130C8001A200C30C8001A200130C300EF
:1006A6000130C4002030C50062200230BD000D308C
:1006B600BE00DF30BF0084220230BD000E30BE0017
:1006C6004330BF0084220930BD000230BE00E9215C
:1006D6000930BD000230BE00CC30BF001222093006
:1006E600BD000230BE004430BF0012220830FB00BD
:1006F6009D30FC000530FD00FD0B7F2BFC0B7F2B96
:10070600FB0B7F2B000000000930BD000230BE004D
:10071600E9210930BD000230BE00CC30BF001222F4
:100726000930BD000230BE00BE30BF0012220930C3
:10073600BD000230BE0048227008B900BA01093077
:10074600BD000230BE0048227008F300F2013908ED
:100756007207F00073080318013E3A07F1007008AB
:10076600B9007108BA007008BD007108BE001821F2
:100776000630FB001330FC00AD30FD00FD0BC12B35
:10078600FC0BC12BFB0BC12B00000000662BCA2BF8
:04400E00F22F000786
:00000001FF
