:020000002A28AC
:10000800FF00030E8301A3000A08A4008A01A20AC4
:100018000C1080308F008E0124088A00230E830084
:06002800FF0E7F0E09002F
:0E002E008312031321088A00200882000800B4
:10003C0017208A110A128000840AA00A0319A10A47
:08004C00F003031D1E2808004B
:100054008316031788018901F03083120313860085
:10006400831686010130831290000C1080308F00BB
:100074008E0183160C148312A201C0308B00220857
:0E0084004C3A031D47288609A201412848284E
:04400E00F22F000786
:00000001FF
