:020000002C28AA
:10000800FF00030E8301A4000A08A5008A01A20AC2
:100018000319A30A6030810020308B0025088A006C
:0A002800240E8300FF0E7F0E090076
:0E0032008312031321088A00200882000800B0
:1000400019208A110A128000840AA00A0319A10A41
:08005000F003031D2028080045
:100058008430831603138100031788018901860100
:1000680083120313860160308100A0308B00A20147
:10007800A3012308013A031D432890302206031DDB
:100088004B28060AF00070088600A201A3013D284B
:020098004C28F2
:04400E00F22F000786
:00000001FF
